:10000000F8250020910E0000775300007D0E0000BF
:100010007D0E00007D0E00007D0E00007D0E0000B4
:100020000000000000000000000000003D10000083
:100030007D0E000000000000FD0F00007D0E00009E
:100040009911000099110000991100009911000008
:1000500099110000991100009911000099110000F8
:1000600099110000991100009911000099110000E8
:1000700099110000991100009911000099110000D8
:1000800099110000991100009911000099110000C8
:1000900099110000991100009911000099110000B8
:1000A00099110000991100009911000099110000A8
:1000B0009911000099110000991100009911000098
:1000C0009911000099110000991100009911000088
:1000D0009911000099110000991100009911000078
:1000E0009911000099110000991100009911000068
:1000F0009911000099110000991100009911000058
:100100009911000099110000991100009911000047
:100110009911000099110000991100009911000037
:100120009911000099110000991100009911000027
:100130009911000099110000991100009911000017
:100140009911000099110000991100009911000007
:040150009911000001
:1001540053B94AB9002908BF00281CBF4FF0FF312A
:100164004FF0FF3000F00CB8ADF1080C6DE904CE8F
:1001740000F008F8DDF804E0DDE9022304B070477C
:10018400704700BF2DE9F04786468C460846089E16
:10019400154674461946002B40F0C1808542B2FAD8
:1001A40082F245D94AB1C2F1200300FA02FC95401B
:1001B40094402EFA03F343EA0C0C4FEA154EA8B20E
:1001C400230CBCFBFEF80EFB18CC08FB00F943EA39
:1001D4000C43994528D9EB1808F1FF3704D2994507
:1001E40002D9A8F102072B44A3EB0903A4B2B3FB81
:1001F400FEFC0EFB1C330CFB00F044EA0344A0425B
:1002040014D92C190CF1FF3304D2A04202D9ACF159
:1002140002032C44241A43EA07401EB1D4400023AD
:1002240034607360BDE8F0874746DDE76346F1E775
:1002340092BB431B01214FEA154EAFB2200CB3FB16
:10024400FEFC0EFB1C330CFB07F840EA0343984505
:1002540061D9EB180CF1FF3004D2984502D9ACF106
:1002640002002B44A3EB0803A4B2B3FBFEFC0EFB79
:100274001C330CFB07F744EA0344A7424DD92C195D
:100284000CF1FF3304D2A74202D9ACF102032C448F
:10029400E41B43EA0040C0E7C2F1200395409440C8
:1002A40020FA03F12EFA03F34FEA154E9040AFB251
:1002B4000343B1FBFEFC0EFB1C10190C0CFB07F8EE
:1002C40041EA0041884522D969180CF1FF3004D273
:1002D400884502D9ACF102002944A1EB08019BB284
:1002E400B1FBFEFC0EFB1C110CFB07F743EA0143B8
:1002F4009F420ED9EB180CF1FF3104D29F4202D970
:10030400ACF102012B44DB1B41EA004193E7604658
:10031400E3E76146F7E76046A4E76346B8E783424C
:1003240006D916B9002108467CE7C6E900E0F9E7DA
:10033400B3FA83F78FB9834201D3724508D8BEEB71
:10034400020460EB030301209C461EB9002169E707
:100354003846FAE7C6E9004CF8E7C7F1200CBB4081
:100364000EFA07F522FA0CF42EFA0CF1BA401C43EB
:1003740020FA0CF3B8404FEA144901431FFA84FEF3
:10038400B3FBF9F809FB18300B0C08FB0EFA43EA2F
:1003940000439A4540D9E31808F1FF3004D29A4546
:1003A40002D9A8F102002344A3EB0A0389B2B3FBE8
:1003B400F9F809FB183308FB0EFE41EA03418E45A8
:1003C4002CD9611808F1FF3304D28E4502D9A8F163
:1003D4000203214443EA0040A1EB0E01A0FB029872
:1003E4004145CE46434602D306D14D4504D2013899
:1003F400B9EB020E68EB0403002EA7D0B5EB0E0296
:1004040061EB030101FA0CFC22FA07F3F9404CEA10
:100414000303C6E9003199E74046C5E74346D9E7F7
:100424000023F0B5194E85B08DF80F30B368184F1E
:10043400184D0193019B1B6823B330460DF10F0146
:100444009847F8B99DF80F30473BDBB2122B19D807
:1004540047FA03F313F0010414D1182005F053FDF7
:10046400014618B90C4804F094FEE3E79DF80F30F8
:1004740044710371284605F0CFFB9DF80F1007481F
:1004840004F087FE0A2004F0C2FBD3E79C6100005D
:10049400FEF7FBFF0C020020EC660000076700007B
:1004A400F8B5174E174F184D4FF0FF324FF0FF338A
:1004B400304603F0D5F9047905F01EFD214638468F
:1004C40004F067FE4FF47A7004F0A1FB522C0AD1B9
:1004D4000E4803F041FA4FF0FF324FF0FF33284645
:1004E40003F014FAE0E7472C01D10948F1E7592C4D
:1004F40001D10848EDE72146074804F04AFED3E756
:100504000C0200201A670000FC01002024020020D5
:100514001C0200202C0200203367000070B50F4E2F
:100524000F4D104C4FF0FF324FF0FF333146284649
:1005340003F02EFA0121204604F055FB0A4B1868FB
:1005440004F065FB0021204604F04DFB074804F04D
:1005540020FE074803F0B6F9E4E700BF8401002059
:100564001C020020E8640000040000204B67000027
:10057400FC01002070B50F4E0F4D104C4FF0FF32B0
:100584004FF0FF333146284603F002FA012120469A
:1005940004F029FB0A4B186804F039FB00212046BB
:1005A40004F021FB074804F0F4FD074803F08AF93E
:1005B400E4E700BFAC01002024020020F064000046
:1005C400080000205E670000FC01002070B5134E97
:1005D400134D144C4FF0FF324FF0FF3331461248A5
:1005E40003F0D6F92846012104F0FDFA0121204642
:1005F40004F0F9FA0D4B186804F009FB28460021B1
:1006040004F0F1FA0021204604F0EDFA084804F061
:10061400C0FD084803F056F9DCE700BFE8010020FC
:10062400F0640000E86400002C02002000000020B8
:100634006F670000FC01002008B5034805F0EAF9E3
:1006440080F00100C0B208BD9C61000010B51048E4
:1006540004F0AFFA041E05DA21460E4804F099FDB1
:10066400204610BD0C4804F0A4FA041E02DA214608
:100674000A48F3E70021064804F0B5FA00210648C9
:1006840004F0B1FA064804F084FD0024E8E700BF52
:10069400F064000083670000E8640000A7670000BE
:1006A400CD67000010B5FFF7D1FFFFF7C5FF044683
:1006B40020B1054804F06DFD204610BD642004F00F
:1006C400A6FA0248F6E700BFE2670000FF670000F1
:1006D400014B1B68184700BF0C00002030B585B0E3
:1006E40004460D4610220021684605F0E4FC02236E
:1006F4008DF80230044B2A4621466846019303F0E4
:10070400FDFF05B030BD00BFD5060000014B1860E9
:10071400704700BF0C00002080B505460E46174602
:10072400984603F03BFC034605F0CEFC0446DFF894
:100734001890424649F8003039463046A84754F8E4
:10074400090000F00BFC00BF080000002DE9F04791
:10075400058B04462807904611D4022905F00705A5
:1007640040F0CC80204604F021FD78B10138218B83
:10077400042811D8DFE800F0C2106D859500012926
:100784000CBF45F0100545F02005258388F311883A
:10079400BFF36F8FBDE8F08701F0070AAA4500F0A8
:1007A400A5800027B9463E46A368002B00F0BC8014
:1007B40041F00801218388F31188BFF36F8FA1688A
:1007C400002900F0BA800D68002900F0B680334695
:1007D40052462046D1F80480C047002D76D02B68BD
:1007E40029461D46F0E701F007035A1F012A1BD8CA
:1007F400002221F00701062B276889B2C4E90022F0
:1008040009D13B4603E0628B013262831B68002BF3
:10081400F9D141F002012046218304F0C7FC0028ED
:100824007AD041F0200176E0042B0AD121F00701AF
:1008340089B22046218304F0B9FC10B141F02001B3
:100844002183218B01F0070AAA454FD00027B9461E
:10085400AAE7236921F0070141F00601062DD3F828
:10086400009021832DD1B9F1000F3FD041F0080150
:10087400218388F31188BFF36F8F20463949C84715
:1008840029E021F00701236941F0040189B2042D14
:10089400D3F804902183E6D000274FF0040A3E46A3
:1008A40082E721F00701236941F0050189B2052D92
:1008B400D3F808902183D6D000274FF0050A3E468E
:1008C40072E700274FF0060A3E466DE72B4687E79E
:1008D400B9F1000FD1D1EFF31188202383F31288EB
:1008E400BFF36F8F238B23F008032383258BEA0642
:1008F4002ED525F01003238305F007056669218BA7
:10090400002EBFF670AF00232768C4E9003321F03E
:10091400070141F001012183218B4FF0000901F00F
:10092400070AAA457FF440AF002F9CD041F008018C
:10093400218388F31188BFF36F8F002FC8D03D68DF
:10094400394633465246204604F05CFC2F46F4E711
:10095400AB067FF51BAF25F02003238305F00705C5
:1009640000E700BF35520000014B036000207047D0
:10097400F864000008B5044804F00BFCBDE8084026
:10098400024804F006BC00BF596800008E680000ED
:10099400014803F071BD00BFF864000038B5044697
:1009A40018B90F4B0F485B6898476168B1F5683F09
:1009B40010D0B1F5680F0DD00B4DA9420AD011F437
:1009C4006861206807D00146084805F079F80023DB
:1009D4002360656038BD142205F06DFBF9E700BFA4
:1009E400F0000020BC6800002C5F5CA9780B00209C
:1009F40008B560B34368B3F5683F0ED0B3F5680F2C
:100A040018D0144A934220D000684FF0FF324FF0C0
:100A1400FF3302F071FE58B115E001220368D3E8F8
:100A2400EF1F002903D1C3E8E02F0028F7D10AD132
:100A3400002008BD0368084A1B7803F5807352F848
:100A44002330002BF4D00548F3E70548F1E76FF4B1
:100A5400E040EEE72C5F5CA900000350E98FFFFF44
:100A6400EA8FFFFF08B520B34368B3F5683F09D0A8
:100A7400B3F5680F13D0114A93421DD0006802F0F9
:100A8400B3FE14E000220368D3E8EF1F012903D169
:100A9400C3E8E02F0028F7D109D0094808BD002198
:100AA4000368084A1B7803F5807342F8231000207A
:100AB400F4E76FF4E040F1E70348EFE72C5F5CA94B
:100AC400E98FFFFF00000350EA8FFFFF10B50446D3
:100AD40018B91D4B1D485B6898476368B3F5683FB8
:100AE4002FD0B3F5680F2CD0194A934219D123683B
:100AF40003BB4FF0FF324FF0FF332146154802F09D
:100B0400CDFD08B923681BB90F4B13485B689847A0
:100B140014220021206805F0CEFA4FF46863636064
:100B240008E0B3F5683F0DD83A2B03D040F6BA621B
:100B34009342DED1206804F0FBFF636843F03A037C
:100B4400636010BD054AF3E7F0000020BC680000B4
:100B54002C5F5CA9780B0020E26800003A00003AA0
:100B640008B5064940231422054804F09BFFBDE85C
:100B740008400449044803F0F1BC00BF7806002093
:100B8400780B0020006500001465000030BFFFF7FB
:100B9400FDBF00BF2DE9F04105460B4EDFF82C8068
:100BA400324606EB0807CC1B2046094905F076FAC5
:100BB400A01942460021083C05F07DFA2C6707F194
:100BC4000800BDE8F08100BF000000000400000040
:100BD400E0640000074A936893F90E10002907DBCC
:100BE400526993421FBF044A536843F080535360D1
:100BF400704700BFD00C002000ED00E0154B9A6A4E
:100C040012F0007F9A6A14BF1E201D2012F0807F0C
:100C14009A6A18BF1F2012F4801F9A6A18BF022014
:100C240012F4002F9A6A18BF212012F4802F9A6AB6
:100C340018BF222012F4003F9A6A18BF232012F42E
:100C4400803F9A6A18BF24206FEA02426FEA124278
:100C54009A62704700ED00E010B5194B0246986A9D
:100C64009C6A10F4805F14BF1720162014F4006FE0
:100C74009C6A18BF1820A40509D5986B986A0004CB
:100C840004D51AB19A6A22F400429A6219200C4BD4
:100C94009A6A12F4806F9A6A18BF1A20D2050CD48B
:100CA4009B6A13F4005F18BF1C20054A936A43F43F
:100CB4007F43936200230B7010BD1B20F5E700BF38
:100CC40000ED00E010B51C4B0246986A9C6A10F0D7
:100CD400100F14BF1120102014F0080F9C6A18BFC5
:100CE4001220A40709D5586B986A000604D51AB1D6
:100CF4009A6A22F080029A6213200F4B9A6A12F0C9
:100D0400010F9A6A18BF142012F0200F9A6A18BFB4
:100D14001520D40658BF9B6A074B9A6A920642BFB5
:100D24005A6A22F400525A629A6A42F0FF029A62A4
:100D340000230B7010BD00BF00ED00E0F0B5474B81
:100D440004465B6800258BB0C3F3080385F3118860
:100D5400BFF36F8F02F07F40B0F17F4F11D102F0EB
:100D64000C0008280DD010074CBF0C4601250022AA
:100D7400033B8DF80720032B05D8DFE803F024623A
:100D8400665F2C46F3E700239DF80720CAB902AE3C
:100D940004F12007324620686168083403C2BC426B
:100DA4001646F7D1099A002D53D0C2F3080121B990
:100DB4006FEA52226FEA42220992184602A904F00D
:100DC400CEFA0BB0F0BD254BDA6A9107DBD4DA6AB0
:100DD400002AD8DBDA6A5200D5D55A69A16942F4EF
:100DE40080725A61BFF34F8FBFF36F8F5A6931F826
:100DF400021C22F480725A61BFF34F8FBFF36F8FCE
:100E04004DF60272914209D09A6AD2B242B10120DF
:100E14000DF10701FFF756FF0346B5E72368B3E773
:100E24009A6A12F47F4F05D001200DF10701FFF7F4
:100E340013FFF1E79B6AB3F5803FA4D3FFF7DEFE0F
:100E4400EAE700200DF10701E4E700200DF10701B6
:100E5400EDE722F4FF7222F00102ADE700ED00E0BD
:100E6400044B5A6942F010025A615A6942F4806292
:100E74005A61704700ED00E0EFF30880EFF3098159
:100E840001B57246FFF75AFF01BD00BF002080F391
:100E94001488BFF36F8F002080F30A8880F30B88D7
:100EA40001F07EFC00200E490860BFF34F8F0D480F
:100EB40080F3088800F02CF8202080F311880A4879
:100EC4004FF40061401880F30988EFF31480022185
:100ED400084380F31488BFF36F8F00F0EFF800002D
:100EE40094ED00E0F8250020B818002000231846EF
:100EF4000649D1F89020C2F30722934200DB7047E1
:100F0400C1F89830C1F8A0000133F6E700ED00E025
:100F140010B572B6002484F31388FFF7E7FF234665
:100F24004FF0FF300C4A03F120010133102B42F83B
:100F34002100F8D100234FF0FF30074A03F160018C
:100F44000133102B42F82100F8D162B6BFF34F8F62
:100F5400BFF36F8F10BD00BF00E100E0084B9B683A
:100F640083420BD1EFF3058343B1064B5A6842F039
:100F740080525A605A6A22F400425A6204F029BF2D
:100F8400D00C002000ED00E06FF00A01084A9368DD
:100F94009967084958674B6843F080534B600023B6
:100FA40083F31188BFF36F8F9368986F704700BF06
:100FB400D00C002000ED00E0EFF31183202383F335
:100FC4001288BFF36F8F4FF00061084A5369936032
:100FD400074A5160196F074A116000215A6F596717
:100FE40082F31188BFF36F8F704700BFD00C0020CD
:100FF40000ED00E0940B00200E498A684FF03000A9
:101004001044EFF3098C80E8F01F74467046FFF734
:10101400D3FFA64607498A6802F1300090E8F01F22
:101024008CF3098802F1000004B504F0ADF9BDE8C1
:1010340004407047D00C00201EF0040F0CBFEFF3E7
:101044000880EFF30980816911F8021C0229FFD09E
:1010540001B504F08AF901BD40B2002807DB012381
:101064004109034A00F01F00834042F821307047D1
:1010740000E100E0054B420953F82220012300F06F
:101084001F0003FA00F01040704700BF00E100E0C9
:1010940040B2002801F10101ACBF00F16040064BF1
:1010A4004FEA4111C9B2ABBF00F5614000F00F0037
:1010B40080F800131954704714ED00E00B4A08B58A
:1010C4000B4B22F07F029A60BFF34F8FBFF36F8FF9
:1010D400D3F8882022F47002C3F8882002F01CFAA6
:1010E40002F0E8FF00F04AF802F056FA00000000AF
:1010F40000ED00E042F8203C009B0B4942F81C3C08
:10110400019B21F0010142F8183C029B42F8081CA3
:1011140042F8143C4FF0807342F8043C0023203A18
:1011240002654367704700BF1D0700000C4B15465E
:101134009860026F0B4B0E461A60036E83F30B88A4
:101144002C4686F309884FF00000074B9847204649
:101154004FF000014FF000024FF00003034C204712
:10116400D00C0020940B0020955300001D070000B4
:101174001022014B1A61704700ED00E0002320218A
:101184000348C2180133452B82F80013F9D1704784
:1011940000E100E008B5EFF30583064A103B02EBDB
:1011A400C30152F8330049688847BDE80840FFF797
:1011B40011BD00BFC46100001FB5094C094A234694
:1011C4000121094800F0FAF800230393074B012199
:1011D400E41A01A80193029400F0FAF804B010BDD7
:1011E40000000720000000202465000038020020D1
:1011F40010B50C7A0B6804F01F0223F01F031A4386
:10120400CB68640923F01F03054943EA440343F010
:101214000103C1F89800C1F89C20C1F8A03010BDAA
:1012240000ED00E010B5074BD3F89030C3F307236B
:10123400013B984202D8FFF7DBFF10BD6FF01500A9
:10124400FBE700BF00ED00E02DE9F04F0F46144628
:1012540006464FF000084D4D85B0B84580F29280A7
:10126400D6F80490B9F1000F36D0B9F11F0F40F24F
:10127400878019F01F0F40F08380D6F800A01AF081
:101284001F0F7DD1504604F0BFF8834609EB0A00D6
:10129400013804F0B9F8834572D11BF1160F6FD0F1
:1012A4005C456DDDC5F898B0D5F89C10C5F898B0CC
:1012B400D5F8A03021F01F0143F01F0AD6E900320F
:1012C4001A44994202F1FF391ED1CA4508D1314668
:1012D4005FFA8BF004F0A1F808F101080C36BCE7C2
:1012E4003146C5F898B0D5F89C3022F01F0203F0BF
:1012F4001F031343C5F89C30E0B204F08EF810F1DC
:10130400160F3DD0441CE7E7C5F898B0D5F8A020E7
:10131400013B23F01F0302F01F021343CA45314669
:10132400E0B2C5F8A030E8D004F077F810F1160F59
:1013340026D0C5F898B0D5F89C209DF808300AF15D
:10134400FF3A62F304038DF80830D5F8A0309DF815
:1013540008205B0863F347128DF80820D6E90032B1
:101364001344009323F01F035344A3EB09030130F8
:1013740023F01F036946C0B20393FFF753FFBEE790
:101384006FF01504204605B0BDE8F08F00ED00E0D5
:101394000522044BC3F89420BFF34F8FBFF36F8F24
:1013A400704700BF00ED00E0BFF35F8F0022024BE7
:1013B400C3F89420704700BF00ED00E010B5034C63
:1013C4002278FFF741FF207010BD00BFD80E002027
:1013D4002DE9F74F294D8A4606464FF00008AB46E3
:1013E400274FD0451BDAD6F80490B9F1000F3FD04F
:1013F40031680846019104F007F80199044609EBA5
:101404000100013804F000F884424FF014021D4B2F
:1014140008D002FB08F36FF015024BF8032003B069
:10142400BDE8F08F14F1160F2C60F8D01978A142A2
:10143400F5DD02FB08B0C7F89840C7F89840D7F824
:101444009C4000F10801007B64F304000871D7F8A4
:10145400A0000C79400860F347140C71D7F89C1075
:1014640021F01F016960D7F8A01021F01F01296144
:1014740008F1010814350C36B3E700BF980B0020BF
:1014840000ED00E0D80E0020F0B54149414CD1F800
:1014940090302568C3F307239D4287B075D8002098
:1014A400FFF782FF3C4BC1F8C030854216D13B4C5C
:1014B40001A82570FFF758FA00250646384FAE42BA
:1014C40013D1002023783249D1F89020C2F30722A7
:1014D400934254DBFFF75CFF00202FE0616801EBCF
:1014E4000011FFF785FE0130DFE70199280101EBC8
:1014F4000513DA683A40B2F5001F21D0B2F5800F27
:101504002BD0B2F5801F38D15A689B680958013B2B
:1015140022F01F0003440120844623F01F0340EA05
:101524004C10CDE902218DF8100002A92078059312
:10153400FFF778FE00281DDA6FF0150007B0F0BD44
:101544005A689B680958013B22F01F0003444FF07E
:10155400020C012023F01F03E1E75A689B68095835
:10156400013B22F01F0003444FF0000C062023F03F
:101574001F03D4E723780133237001359FE7C1F8B3
:101584009830C1F8A00001339EE74FF0FF30D5E753
:1015940000ED00E030650000AAFF4400D80E0020F2
:1015A4000000F0FF08B5024B1B689847002008BDF7
:1015B400AC0B0020034B044A1860937843F00203F9
:1015C40093707047AC0B00203000002008B506492A
:1015D400064821F00701C1F1005202F5E02203F0B0
:1015E4007EFD002008BD00BFFF290020B00B0020B5
:1015F40007B50DF1070004F0D3F8114B98421CD144
:101604004FF480620F4B1049C3F8B8254FF40062C1
:10161400C3F83C259DF8070004F0B6F80B499DF883
:10162400070004F0ACF801209DF80730984001F061
:10163400FFF9002003B05DF804FB6FF00B00F9E73D
:101644000000AD0B00A002502CA0025028A10250B3
:10165400054B03EB8000D0F8003223F0E04343F065
:101664004053C0F80032704700258450012208B569
:101674000A4B0B49C3F8002502230020C1F8D036D9
:10168400FFF7E6FF1046FFF7E3FFC1F80427C1F8B0
:101694000429C1F8002B002008BD00BF0010005031
:1016A40000400050052370B5144D154E2C780134BC
:1016B400B4FBF3F303EB8303E41A04F04EF8114A8A
:1016C400137823B156F82430C01A072814D94FF0E0
:1016D4005023D3F8141141B10021C3F81411D3F8E5
:1016E40014312C700CB9012313702C7804F035F8E4
:1016F40046F82400012070BD0020FCE7DA0E00202B
:10170400BC0B0020D90E002048B1054B054A1B68CC
:10171400B3FBF2F35843044B43F0010318477047FB
:101724005C00002040420F00E064000001490248D0
:1017340003F08BBD58650000D00B00204FF47F03ED
:101744002DE9F041D3F830210646072A0D46D3F897
:10175400343120D1023B032B02D8124AD35CD3B1DB
:101764004FF050244FF0010800270520C4F81886D4
:10177400C4F8147604F001F84046C4F8148603F063
:10178400FCFFC4F81476C4F8187630462B46BDE83E
:10179400F041002118474FF050230022C3F81426CB
:1017A400F3E700BF1E690000084B70B5C31A0D466D
:1017B40007499B10044659434022064803F05CFE47
:1017C4002B4601462046BDE870401847000C002017
:1017D400B76DDBB660610000402373B50B4C00931A
:1017E400041B0B460D460A49A41061430646094AE8
:1017F400094803F06DFE011E05DA30462B4602B09F
:10180400BDE87040184702B070BD00BF000C002056
:10181400B76DDBB63F5500006061000010B5EFF313
:101824001184202383F31288BFF36F8F074A136850
:1018340023F00201DB07116002D4012004F063F8F5
:1018440084F31188BFF36F8F10BD00BFA00C00207C
:101854002DE9F8430022012106460520FFF718FC74
:10186400114801F0EBF8114B984219D101F0F6F848
:1018740000244FF01C090C27DFF8348035694146F9
:1018840009FB045003F0E1FC002807DB012307FBFC
:1018940004551C44042CAB67F0D10020BDE8F88348
:1018A4006FF00400FAE700BFB11900000000AD0BAF
:1018B400646500001FB500220123CDE902236B46B5
:1018C400084ACDF800D0CDF804D003F02FFE00284C
:1018D40005DB4FF480420023684602F017F805B098
:1018E4005DF804FB755500000C22104B014602FB09
:1018F4000033002030B4D3E91C521867EFF3118091
:10190400202484F31288BFF36F8F9C6F04F0C0040B
:1019140044F002049C6780F31188BFF36F8F1DB1FC
:101924002B4630BC0248184730BC7047000C0020DE
:101934006061000010B4EFF31182202383F3128856
:10194400BFF36F8F1748016841F002040460C807B1
:1019540007D482F31188BFF36F8F012010BC01F00C
:1019640095B84FF05021D1F80C04D1F80C14C907E4
:10197400EFD5EFF3118083F31288BFF36F8F0A4919
:101984008B6F03F0C00343F002038B6780F311886D
:10199400BFF36F8F82F31188BFF36F8F002010BCE9
:1019A400FFF7A2BFA00C0020000C0020062812D8CC
:1019B400DFE800F0040F1111110D0B00064B986FB6
:1019C40010F0070007D1FFF78FBF0220FBE70320C9
:1019D400F9E70120F7E77047000C00202DE9F041FA
:1019E400012207463649D1E8EF3FC1E8E02F00283D
:1019F400F9D133B9334934484B60CB608A6003F082
:101A040037FC7B1E012B2BD8012F07D14FF050231D
:101A1400D3F81C3403F00303022B21D004F007F99C
:101A24000546F8B9294B1B78E3B14FF05023022245
:101A34000646C3F808234FF05024DFF89480D4F806
:101A44001824D4F81834D20315D503F00303022B59
:101A540001D0012F0FD16DB386F31188BFF36F8FBF
:101A6400BDE8F081EFF31186202383F31288BFF3DE
:101A74006F8F0125DFE7C5B1304603F0A9FCD4F828
:101A84001835DBB2012BDAD1D4F80421002AD6D0E0
:101A94000022C4F80421D4F804210222C4F8182531
:101AA4002022C8F88021A360C9E70021212002F088
:101AB40057FAE4E74FF050230222C3F80423CFE798
:101AC400FC0B0020EC0B00201C0C0020DD0E002081
:101AD40000E100E008B5074803F09CFF38B1064870
:101AE400FFF768FD0448FEF711FE002008BD6FF003
:101AF4001200FBE79C610000011B00000A2838B5B6
:101B04000446074D04D1AB680D2128465B6898470D
:101B1400AB6803485B68E1B29847204638BD00BF14
:101B24009C610000F0B5406801F01F04057B87B09C
:101B340044EA45140569002D63D0B2F5001F00F195
:101B4400100506D12146284603F05DFF002007B0AA
:101B5400F0BD0027B2F5800F01AE0197776039D14F
:101B6400B3F1007F14BF052304238DF80430002350
:101B7400CDE904630393836823FA01F111F00101B1
:101B84001AD1B2F1A07F17D104F01F03620903F147
:101B940080032AD0012A3AD11E4A52F82330DB07A7
:101BA4000AD40DF1030632462146284601F092FA82
:101BB400194B98421BD002962146284603AA01F0ED
:101BC40045F9164B98421FD101222146284601F0BF
:101BD400E3FABBE7B3F1C06F05D0B3F1007F14BFE4
:101BE40001230223C1E70323BFE70D4AD5E73146AA
:101BF400284601F0CBFA094B9842DCD06FF00B0079
:101C0400A5E76FF08500A2E76FF015009FE751F894
:101C14002330FFDE002884500400AD0B0000AD0B20
:101C24000025845038B545682B69B3B11035284672
:101C340001F09CFA044680B90146284601F064FA92
:101C4400084B98420BD122462846074901F03CFA3A
:101C5400224605210D20FFF71BFA002038BD6FF046
:101C64000400FBE70000AD0B711C000042090346B1
:101C740070B502D0012A17D070BD0D4E326951687B
:101C84000029F9D0012503F01F030C689D400029A9
:101C9400F2D08A682A4002D030464B6898472CB16B
:101CA400236821461C46F2E7024EE7E72346F8E79D
:101CB40088610000746100002DE9F04340F20635AC
:101CC4004668D00648BF0320337B02EA050558BFA7
:101CD400C2F3401087B001F01F07B5F5837F1446A7
:101CE40047EA43178DF8030043D00FD8062D18D0C8
:101CF40007D8B5B1022D3ED06FF0150007B0BDE88E
:101D0400F083B5F5807FF7D101250AE040F2022285
:101D1400954232D0B5F5407F31D0B5F5007FEBD197
:101D2400022522032DD5012372688B40936032690A
:101D340082BB07F01F037F092AD0012F77D13E4AC7
:101D440002EB830284F48033D2F80012C3F300431D
:101D5400C4F3404444EA430421F4706144EA800437
:101D640021F00F0144EA05230B43C2F8003200209E
:101D7400C4E70725D5E70425D3E70525D1E70325DF
:101D8400CFE7630341BF012372688B40D360CEE782
:101D94002A4AD5E71036394630460DF1020201F0E1
:101DA40099F914F4403F80460CD13946304603F08B
:101DB40028FE234B9845DAD130469DF8021001F0F5
:101DC400DFF9D4E74FF0000901AB3946304603AAE6
:101DD400CDE90439CDE90199CDF80C9001F036F83C
:101DE400174B984288D114F4003315D09DF8033072
:101DF40084F48034C4F300448DF80E3039464B46E5
:101E0400304603AA8DF80C508DF80D4001F0DAF835
:101E14000B4B9842CDD06FE7CDE9043339460DF131
:101E24000303304603AA039301F010F8F0E780336C
:101E340052F82330FFDE00BF002884500025845070
:101E44000000AD0B10B50B4C204603F0E3FD70B160
:101E54002269A1681368204623F4001313600B68F9
:101E64004FF4C0221521984700EAE07010BD6FF0CE
:101E74001200FBE788610000036803F01F025B099E
:101E8400026004D0012B034818BF002070470248A9
:101E9400704700BF00288450002584502DE9F04F7E
:101EA4001546834640F2FF18DFF87C91DFF87CA1E9
:101EB40085B000EB8101594503D1002005B0BDE890
:101EC400F08FDBF80030C3F3C322082AC3F30804FD
:101ED40000F2A4805B0C444508BF4FF0FF3419F8AE
:101EE4000270192B00F29D80DFE803F00D141A1D17
:101EF40020261D9B9B9B9B356265686B6E71747776
:101F04009B9B7A8F9295C5F80C45601C72D10BF19E
:101F1400040BD0E7C5F81445621CF8D0002672E023
:101F2400C5F80845F1E7C5F81045F5E7631CC5F8A1
:101F34000845ECD0002604E0C5F80C45661CE6D044
:101F4400012603A80394FFF797FF0122039B02FADB
:101F540003F3C36008E0C5F80845002FDCD1601C1A
:101F6400D5D0002606273246DBF80030039403F46C
:101F74000040002818BF002203A818BF01260193BF
:101F84000092FFF779FF039C019B00EB8400D0F8DB
:101F94000042C3F3412C009A3B0243EA8C031343EF
:101FA40004EA0A04234343EA4603C0F80032AEE7D6
:101FB400C5F80C45D1E7C5F86445BFE7C5F86445E5
:101FC400AAE7C5F86845B9E7C5F86845A4E7C5F8C0
:101FD4006C45A1E7C5F87045B0E7C5F86045ADE7C5
:101FE400C5F86045621CDBF8003090D0C3F30043B1
:101FF400002BA5D0012603A80394FFF73DFF039B04
:1020040006FA03F383603246AEE7C5F86445E9E7B0
:10201400C5F86845E6E7C5F86C45E3E76FF01500D9
:102024004CE76FF0850049E745690000F0F0FCFFDC
:102034002DE9F74306464FF000080022012108204D
:10204400FFF726F80820FFF707F8776835693C683A
:102054004146C4F800852E60D7F80C9001AA484682
:1020640003F0D6FA00283FDB019BD9F80020197948
:102074001868FFF713FF002836DB6B7AD6F810C018
:10208400012B03D0032B2DD14FF01008AB7A032B77
:1020940028D195F80BE0BEF1000F02D0BEF1010F7C
:1020A40020D12A7A012A22D0022A24D0D2B9104679
:1020B4006B687168B3F5164F096800F0BA803AD8B6
:1020C400B3F5165F00F0B88020D8B3F5966F00F032
:1020D400B58012D8B3F5967F00F0B380B3F5167FC0
:1020E40000F0B2806FF0850003B0BDE8F0834FF4D8
:1020F40080700E22DCE70020FBE7B3F5166F00F0DA
:10210400A680B3F5965FEDD15D4B43E0B3F5E14FA7
:1021140000F0A08008D8B3F5615F00F09D80B3F5AE
:10212400964FDFD1574B35E047F612294B45D9D1AD
:102134004FF400032EE0B3F5613F00F08F8015D813
:10214400B3F5963F00F08D800AD84DF6C0294B4573
:1021540000F08980B3F5614FC4D14FF46B0319E0EB
:10216400B3F5E13FBED14FF0EB7313E0B3F5612F4C
:102174007CD009D8DFF810914B457AD0B3F5E12F24
:10218400B0D14FF0E86305E0DFF800914B45A9D1E9
:102194004FF08053C1F82435736840EA0E001B6881
:1021A40042EA08021043C3F86C050CF10403D5E9B4
:1021B400010183E803007B68990712D505F1180033
:1021C40000F024FD324B984256D1287E04F10C02D3
:1021D40004F5907103F0DDFA01202B7E984000F0A5
:1021E40027FC0823C4F800353B7A53B9C4F81031EE
:1021F400D4F810316B69C4F834350123C4F8383588
:1022040023607B6800209A075CBF4FF48073C4F896
:1022140004337B68DB0644BF4FF48003C4F8043303
:102224002B69C4F844350123C4F84805A360E3606E
:102234005AE74FF41D03ADE7164BABE74FF49E236B
:10224400A8E74FF4A033A5E74FF41C33A2E74FF4FB
:102254001D239FE7104B9DE7104B9BE74FF06C73DA
:1022640098E70F4B96E74FF4650393E74FF07063DD
:1022740090E74FF080638DE76FF0040034E700BF10
:1022840000B0130000A04E0090D0030040420F00A5
:102294000000AD0B0050270000C0750000F03A00AC
:1022A40000903A012DE9F04104460D46076903F018
:1022B400BEFC4FF02008B0B92C4B1B789BB16426B0
:1022C400606803F0F7F9F0B9012003F056FA013E13
:1022D400F6D10021212001F043FEF0E786F31188B6
:1022E400BFF36F8FF5E7EFF31186314688F3128859
:1022F400BFF36F8F606803F0DDF980B986F311884E
:10230400BFF36F8FEFE7EFF31186314688F312883E
:10231400BFF36F8F606803F0CDF90028DED03B690E
:102324001D70626838691368C3F844050120C3F856
:1023340048050020C3F82001D3F82051C3F8580100
:102344005268D3F85801D20608D50820626812688A
:10235400C2F800054FF48002C3F8042301229A60F6
:1023640081F31188BFF36F8FBDE8F081DD0E00208B
:102374000123834070B5DC430B4AD2E8EF1F01EA26
:102384000405C2E8E65F002EF7D14FF480328240A4
:102394000648C0F80823BFF35F8FBFF36F8F0B426B
:1023A40014BF0120002070BDC00C0020005001505B
:1023B40070B40E4922F07F46D1E90034D01AC31814
:1023C40044F10004C1E90034A6F50013B3F5400F4D
:1023D40009D2074B1B681A0A1B069C19054B42F1CC
:1023E4000005C3E9004570BC01F03EBFC8040020ED
:1023F400C40C0020D0040020D9B101230D4A83402D
:10240400D2E8EFCF4CEA030CC2E8E1CF0029F7D1C0
:102414004FF48033084A8340C2F80433074BD3E8AF
:10242400AF3FC340DB0742BF4FF40012044BC3F875
:1024340000217047C00C002000500150BC0C00204B
:1024440000E100E00D4B1868010A0006BFF35F8F3E
:102454000B4BD3F80435181841F10001B3F5801F74
:102464000AD2084BD3E90023904271EB030303D251
:1024740010F1807041F10001704700BFC40C0020CE
:1024840000500150D00400202DE9F04F85B01646CD
:102494001F4604469DF840A0FFF76AFF0190FFF72E
:1024A400D1FFB04271EB070352D23B4B301A67EBBA
:1024B4000101984271F100014DD2384B03EB041332
:1024C400D3E902239F4208BF964258D04FF4803884
:1024D400334908FA04F8204626F07F4BC1F84883B4
:1024E40003F02FF94FF00309584604F15005AD00ED
:1024F400ADB205F1502504F5A87305F580350293B6
:10250400029A20F07F4341F82230C1F84483D1F885
:102514000435244AC01A033820F07F4090422ED953
:10252400286868B1D1F80435A3EB0B0020F07F4094
:10253400B0F5000F039322D9204603F002F9039B60
:10254400BAF1000F07D109EB030009F10109D7E73C
:10255400BAF1000F09D06FF0150520460199FFF775
:102564004BFF284605B0BDE8F08F01230E4AA34077
:10257400D2E8EF0F1843C2E8E10F0029F8D1074968
:102584000E982301C8500F9B01EB04120025C2E9E9
:1025940002675360E1E700BF01008000B804002037
:1025A40000500150FDFF7F00BC0C00207FB50025CA
:1025B4004FF0FF304FF0FF31194C1A4B0226C4F88C
:1025C4000833C4F84833184BC4F80855C3E902016A
:1025D4004FF480334FF40012C4F80433134B012139
:1025E400C4F804631520C3F880212A46FEF750FD81
:1025F4001520FEF731FD01230D4AA360236013600B
:102604000C4B0D4A009328460023CDE90155FFF7F2
:102614003BFF3046FFF7E2F9284604B070BD00BF27
:102624000050015003000F00B804002000E100E056
:10263400C00C0020B5230000FFFF7F002DE9F74305
:102644002E4BD3F8042390070BD5D3F8042142B1C1
:102654000022C3F804212A4AD3F804311368013351
:102664001360264AD2F80433D90326D5254BD3E880
:10267400EF1F21F00100C3E8E40F002CF7D1CB07D2
:1026840002D4D2F84031C3B100251C4CC4F84051E7
:10269400D4F84031FFF7D6FEEFF31182202383F301
:1026A4001288BFF36F8F184BD3E90267B042B94168
:1026B40006D282F31188BFF36F8F03B0BDE8F083B5
:1026C4004FF0FF38D3E900104FF0FF391D60C3E924
:1026D40002894FF48033C4F84833C4F84051D4F825
:1026E400403182F31188BFF36F8F0029E5D0009049
:1026F40032463B4628468847DFE700BF005001507A
:10270400C40C0020BC0C0020B804002030B5431CCD
:10271400124C85B005D08442A8BF0446012CB8BF32
:102724000124FFF78FFE0E4B0C4DD3E90013401A22
:10273400B0F5000F0FD22218AA4228BF2A46002063
:1027440052180849CDE90100009143F10003FFF755
:102754009BFE05B030BD2A46F1E700BFFFFF7F00B6
:10276400C8040020B523000008B5FFF76BFE024B38
:102774001B68C01A08BD00BFC80400204FF47F03C3
:10278400D3F83021D3F83431072A05D1023B032B87
:1027940002D8024AD05C7047002070476569000087
:1027A40008B5FFF7EBFF58B1784BD3F8202A3AB9B4
:1027B4000D21C3F8201A0121C3F81C19C3F81C29E0
:1027C4000022D30003F57F03D3F80013013107D0AF
:1027D400D3F800130132D3F80433202A0B60F0D16C
:1027E400FFF7CCFF002840F0B980FFF7C7FF40B1E6
:1027F400674B684AC3F830254FF050230122C3F8D1
:1028040058254FF47F03D3F83021D3F83431072A05
:1028140009D1023B032B06D85F4AD35C1BB10022CB
:102824005E4BC3F84C25FFF7A9FF50B14FF050237E
:10283400D3F80024D00742BF0022C3F81421C3F800
:1028440018214FF47F03D3F83021D3F83431072A09
:1028540009D14FF05023D3F80024D10744BF6FF0BF
:102864000102C3F80024FFF789FF18B16522474B22
:10287400C3F80C274FF47F03D3F83021D3F8343155
:10288400072A16D1454BD3F82034002B11DA4FF028
:1028940050230322C3F8182501229A60D3F8042197
:1028A400002AFBD00022C3F804210122DA60C3F815
:1028B40018254FF47F03D3F83021D3F83431072A95
:1028C40023D1023B032B02D8354AD35CEBB17E22E1
:1028D4002E4B2F49C3F80C27C3F83C297F23314AD8
:1028E400C2F818310023C1F8043EC1F8083E01F5CE
:1028F4004821C1F81031C2F82431C2F82C3102F554
:10290400FF1202F58052C2F8A032274B9A6AD2070E
:102914002CD501211E4AC2F80415D2F8001400294E
:10292400FBD09A6A22F001029A62194BD3F8002470
:10293400002AFBD00022C3F80425D3F80024002A7F
:10294400FBD0BFF34F8F1949194BCA6802F4E062F8
:102954001343CB60BFF34F8F00BFFDE729220B4B1E
:10296400C3F80C270322C3F83C273EE70F49D1F8EC
:102974008C2042F44062C1F88C2019680D4AC2F8D8
:102984004415DB69C2F84C3508BD00BF0040005057
:10299400009003504400EFBE616900000020035022
:1029A4005D690000002000500080FF0000ED00E0A1
:1029B4000400FA050060005030B50468ACB1B4FA04
:1029C40084F30122C3F11F03DBB29A4024EA02021A
:1029D400D0E8EF5FA54204D1C0E8EC2FBCF1000FB2
:1029E400F6D1EAD102480B7030BD0248FCE700BFC3
:1029F4000000AD0B0200AD0B10B50368CB40DB0744
:102A040010D401238B40026843EA0201D0E8EF4F5F
:102A1400944204D1C0E8EC1FBCF1000FF6D1F2D10E
:102A2400014810BD0148FCE70000AD0B0400AD0BEC
:102A3400014BC3F80405704700700150044B1A7928
:102A440022B9012218601A7102487047024870477F
:102A5400C80C00200000AD0B0C00AD0B08B50A4BF0
:102A64001B6833B10520FEF705FB10B90520FEF7FE
:102A7400F3FA4FF050230122C3F81825C3F81425A4
:102A8400C3F8802508BD00BFC80C002010B503287A
:102A940045D8DFE800F01802554F00224FF4807348
:102AA4000121002003F1502318601C68012402F165
:102AB40050221460284A1268002A47D04FF050234D
:102AC400C3F804132BE04FF05023D3F81814D3F8B1
:102AD4001824C90312D502F00303022B05D0012BDD
:102AE40002D0002002F05EFE01234FF050220221AA
:102AF400C2F8183508224FF48273D2E7D3F81424AD
:102B0400D207F1D5D3F81C2402F00302013A012ABA
:102B1400E7D8114A12681AB10222C3F8042310BD7F
:102B2400D3F80421002AFBD00022C3F80421D3F8EF
:102B34000431F4E718224FF490734FF48071B0E736
:102B440020224FF492734FF40071AAE71A68002A06
:102B5400FCD018601B68E2E7C80C00204FF050233B
:102B640010B5D3F8002152B10020C3F80001D3F806
:102B740000210122C3F80823234B1B6898474FF018
:102B84005023D3F8042182B10022C3F80421D3F8DE
:102B94000421D3F81824D3F81824022102F00302E4
:102BA400012A28D1C3F818159A604FF05023D3F89E
:102BB400202162B10022C3F82021D3F820214FF450
:102BC4008072C3F80823104B05201B6898474FF008
:102BD4005023D3F82421AAB10022C3F82421D3F826
:102BE40024214FF40072C3F80823074B0620BDE8E4
:102BF40010401B681847C3F80813034B01201B68D7
:102C04009847D2E710BD00BFC80C00200146014818
:102C1400FFF7D2BE60000020036803F01F025B09C7
:102C2400026004D0012B034818BF002070470248FB
:102C3400704700BF0028845000258450034A43098C
:102C4400D35C00F01F001844C0B2704769690000EB
:102C540070B50546FFF7F2FF0C4C083034F810301D
:102C64000E46DA0508D5C3F3432304EBC302284612
:102C740054F8333052689847A3682BB1314628463C
:102C8400E268BDE87040184770BD00BF64000020D2
:102C940008B5FFF7D3FF034B083033F81000400B9F
:102CA40008BD00BF6400002008B5FFF7C7FF034B51
:102CB400083033F81000C0F3400008BD6400002061
:102CC40008B5FFF7BBFF034B083033F81000C0F31F
:102CD400401008BD64000020034611F0010010B547
:102CE400CCB20BD1A207C4F340000DD5074A106A39
:102CF40058601062003818BF012005E004490A6AD0
:102D04001A600A62002AEDD010BD00BF002884506A
:102D14000025845010B5FFF791FF124A083032F8AD
:102D24001030D9051CD5C3F3432123F4F85322F8FA
:102D34001030002002F10E0434F8023F13F4807FB7
:102D440003D0C3F3432399420AD001303028F3D18E
:102D5400002342F831300448BDE81040FFF74CBE70
:102D640010BD00BF64000020DC000020F0B5054663
:102D740000200126044607468C420BD1114BD3F8A0
:102D84007C2132B10022C3F87C21D3F87C3140F09D
:102D94000040F0BDE3B29B0003F580729B0806FA85
:102DA40003F31D420BD002F1A04202F55042D2F8C7
:102DB40000C0BCF1000F02D0176012681843013440
:102DC400DAE700BF00D00050F7B506460846FFF723
:102DD40035FF1A4F00F1080537F815300C46DB07AC
:102DE4002AD5304602F0E9FD2046FFF769FF58B1C5
:102DF4002046FFF74DFF0022316800B201EB80034B
:102E0400C3F81025C3F810252046FFF783FF0023DD
:102E140001A827F815300194FFF7FEFE019B00EB93
:102E24008300D0F80022064B134043F00203C0F89D
:102E34000032044803B0F0BD0348FBE764000020FF
:102E4400F0F0FCFF0000AD0B0400AD0B2DE9F043E6
:102E54001646804685B00846FFF7F0FE0D463168F9
:102E6400044609B32846FFF71FFF18B12846FFF7A9
:102E740027FF10BB00230DF10F02CDE900338DF8BD
:102E84000E308DF80F3028460B460DF10E0102F07E
:102E94003CFD484A04F1080132F8113023F00203E2
:102EA40043F0010322F8113073687BB328461F787E
:102EB4005968FFF7F9FE10B1E9B13F4829E03D4AEE
:102EC40004F1080032F8103023F02003DB04DB0C9B
:102ED40022F8103079B1032FEFD87168D1F804E0EB
:102EE400D8F800109EF800C001EB8C01A7B9C1F816
:102EF4001075C1F810752F4A04F1080132F8113029
:102F040023F01C0343EA870322F81130B3683BBB68
:102F14002A4805B0BDE8F083D1F810E543EA4C3304
:102F24002EF0030EC1F810E5D8F8001043F020038A
:102F340001EB8C0EDEF8101522F8103021F44F311D
:102F440021F44071CEF810152902DEF8108501F441
:102F54007C5141EA074141EA0801CEF81015CAE75D
:102F64002846D3E90067FFF7D5FE002ED0D0114DD7
:102F7400D5E90023964203D19F4201D1002209E002
:102F84000F480DF10F01FFF717FD0C4B9842C0D10C
:102F94009DF80F2005EBC20308345F6035F8143048
:102FA40045F8326043EA422343F4807325F8143031
:102FB400AEE700BF640000200400AD0B0000AD0BC1
:102FC400DC0000202DE9F0430C46804685B0204605
:102FD40011461D46FFF732FE064629B32046FFF789
:102FE40063FE18B92046FFF76BFE18BB334F06F19A
:102FF400080937F8193013F01C0F02D04B78012B55
:1030040018D001238DF80F3000234A1CCDE900139A
:1030140020468B1C0DF10F0102F077FC37F81930B4
:1030240043F0030327F81930002D44D02046FFF75E
:103034003BFE18B9224805B0BDE8F083002295F89C
:1030440000C0D8F800301D4F03EB8C03C3F81025E3
:10305400C3F8102506F1080237F812104FEA8C0E57
:1030640021F02001C904C90C27F812106E7816B398
:10307400D8F80000AD787044D0F81035360423F445
:10308400991323F4F853C0F81035230203F47C5346
:1030940006F440362D05D0F810E5334305F48015C9
:1030A4002B4341EA4C3143EA0E0341F02001C0F8BE
:1030B400103527F812100348BDE700BF6400002054
:1030C4000400AD0B0000AD0B014BC3E902127047C5
:1030D4006400002010B508461446FFF7F1FD50B116
:1030E4000846FFF7ABFD054B083033F810300448B1
:1030F4005B0B237010BD0348FCE700BF6400002095
:103104000000AD0B0400AD0B70B5154D064695F8E7
:1031140080401CBB2146602205F1100002F0CBFF69
:10312400214630682E6F8E420ED10023C0F87C31C8
:10313400D0F87C3140F30730FDF78EFF01230948B6
:1031440085F88030AB6770BDCBB29B0003F580720D
:103154007C2B04BF845083580131E4E70248F2E732
:10316400640000200000AD0B0C00AD0B034B93F882
:103174008000003818BF0120704700BF64000020A1
:103184000148FFF739BC00BFD80000200148FFF711
:1031940013BC00BFD800002073B503681646D3F8EB
:1031A40004230546002AA8BF4FF000420846A8BFE2
:1031B400C3F804230C46FFF783FD00B30846FFF76A
:1031C40073FD0146D8B92046FFF762FD04B2A4009E
:1031D4000346286804F58072815029688258214486
:1031E400D1F8102542F00102C1F810252EB10122B8
:1031F400296802FA03F3C1F8043302B070BD204613
:10320400FFF71CFD0E4B083033F81030C3F3820374
:10321400042B11D0052B11D001A80194FFF7FCFC5D
:10322400019A0369D34003F00103991C204602B0BC
:10323400BDE8704002F0B2BB0321F7E70221F5E7D5
:10324400640000202DE9F04F684BDFF8A481D3F827
:103254000403D8F87010C0B289B040F00040FFF702
:1032640085FD051E2FDAC24600235AF87C1F06A8E6
:10327400CDE90633FFF730FD4FF0000B5D4B0DF148
:1032840018090193019A12F8013B0192DA081AF81D
:10329400022003F0070322FA03F3DA071CD409F12E
:1032A4000409BBF1000F14D0D8F870104FF000409F
:1032B400FFF75CFDD8F87C1006A8FFF70DFD002889
:1032C400DAD125F000450124002D76D109B0BDE8FE
:1032D400F08F4FF0010BD5E7474B5B440293D9F8CD
:1032E40000100029DBD091FAA1F1B1FA81F1029B1F
:1032F4001C7841EA44142046FFF7A0FC083038F853
:103304001070C808BB080393012319F8002001F0CA
:10331400070103FA01F122EA010209F8002005A8D5
:103324000594FFF779FC059A039B803250F822201C
:10333400C7F382065B073746C2F3014222D5204613
:103344003946D6B2FFF784FC05A80594FFF764FC60
:10335400059B803350F82330C3F301439E4207D1C9
:103364000021204602F01AFB3146204602F016FBEB
:1033740005A80594FFF750FC0122059B02FA03F30C
:103384000362ACE7022A0CD10321204602F006FBBB
:1033940006F00503012BEBD139462046FFF758FC14
:1033A400E6E702212046039202F0F8FA032EF3D056
:1033B400039A032ADCD1022EEDE795FAA5F3B3FABA
:1033C40083F304FA03F29B0003F1A04303F5504393
:1033D400D3F81005D3F81015C0F30520C1F301414B
:1033E40025EA0205FFF734FC6EE700BF00D0005069
:1033F40064000020796900007969000038B5EFF3B2
:103404001185202383F31288BFF36F8F064B9C68CA
:1034140002F013FB85F31188BFF36F8F2046BDE8DC
:103424003840FDF79BBD00BFD00C002038B5094BD8
:1034340053F82040013053F82050A54200D838BD3D
:10344400636823B1204602F0FBFA0834F5E72368E9
:103454009847FAE748660000012270B5294B03201B
:1034640086B01A70FFF7E2FFFDF784FA0420FFF735
:10347400DDFF254C254D2646AE4204F1300410D321
:1034840000F0B0FC204C224EAC4226D300F0BEFC2F
:10349400FDF708F91F4A137B23F00103137306B0E9
:1034A40070BD54F80C3C059354F8103C049354F844
:1034B400143C039354F8183C029354F81C3C0193B5
:1034C40054F8203C009354E90A2354E90C0100F019
:1034D40085FA54F8303C5E65CDE7D4E90A23B3F1AC
:1034E400FF3F08BFB2F1FF3F05D052EA0301206855
:1034F40003D102F0A2FB3034C6E73146183000F0A5
:1035040039FEF8E7DD0E0020F0630000E0640000FF
:103514004B5D00005805002008B50348034A00210C
:10352400121A02F0A5FA08BD38020020E00E0020AD
:103534000023012270B586B0CDE904230F22019344
:10354400CDE9023214234FF4A0720E4D0E4E03FB4C
:1035540000550E4906EBC016044602FB00110C4B45
:103564003046009500F03AFA737B2C7423F0040380
:103574007373084B013403EBC423EE606B6006B035
:1035840070BD00BFD00C0020D8040020B82000205B
:103594000F5B0000B8180020BFB50020FFF746FFFE
:1035A4002D4B03F5006282F3088883F30A88002414
:1035B400E0232A4D2A4E85F82230EC772C766C765F
:1035C400AC7685F820406B6A264F43F4E0236B62A7
:1035D40085F82340FDF744FCFDF7CAFD4FF0FF33A7
:1035E400AB62EB62FDF750FFFDF7E6FD40F201131D
:1035F4001D4D2846AB81C5E9184400F0BDFEB560F9
:1036040002F007FA0120FFF711FF0220174DFFF720
:103614000DFF00F01BFC164B756105930123154942
:103624004FF48062CDE9034328463B46CDE901448B
:10363400009400F0D3F906466A7B284622F004027F
:103644006A7302F036FB2046FFF772FF3A463146B2
:103654002846FDF76BFD00BFB818002000ED00E020
:10366400D00C00205D340000D8050020580500204F
:103674007B690000F8210020002038B5054C064D78
:10368400AC4200D338BD204602F0F6F90028F9DB3D
:103694001C34F5E75A0100205A01002073B50C468A
:1036A400EFF31181202585F31288BFF36F8FC5686E
:1036B4005DB125602B68C360836901338361002099
:1036C40081F31188BFF36F8F11E052EA030603D12F
:1036D4006FF00B002560F3E7CDE9002302460830C4
:1036E40000F0CCFA18B9034B9B685B69236002B005
:1036F40070BD00BFD00C00202DE9F34104461746ED
:103704001E46EFF31188202383F31288BFF36F8FD3
:10371400C368334A7BB180689168884219D057EAFC
:10372400060318D188F31188BFF36F8F6FF00F0071
:1037340002B0BDE8F081916891F90E100133E360A5
:1037440093682161A36088F31188BFF36F8F002011
:10375400EEE72169F2E791F90E1090F90E306FF05F
:103764007E029942A8BF19469142B8BF11468B42C6
:103774002DDD02F0D5F9054622464146CDE9007615
:10378400184800F07BFA0028E1D0EFF311862023DB
:1037940083F31288BFF36F8FA068D0B123682169C7
:1037A4009C420AD04BB193F90E309942A8BF1946F6
:1037B4006FF07E039942B8BF194602F0B1F940B1E7
:1037C4003146084800F0CAFA6FF00A00B0E7002555
:1037D400D2E7002DF4D186F31188BFF36F8FF3E79E
:1037E400D00C0020DE0E002038B58368044663B395
:1037F400194A926893422BD1C368012B03D9013B28
:10380400C360002038BDEFF31185202383F31288B1
:10381400BFF36F8F0169806802F082F9204602F0DD
:1038240096FAA06058B190F90E20226100228267B6
:1038340002F03FFA2946094800F090FAE1E7E06017
:1038440085F31188BFF36F8FDBE76FF01500D9E7BD
:103854004FF0FF30D6E700BFD00C0020DE0E002072
:1038640037B51146EFF31185202282F31288BFF396
:103874006F8F04689CB12368426823F00303944269
:10388400036008BF43600121204602F0B9F90446F1
:1038940085F31188BFF36F8F204603B030BD51EA22
:1038A4000302F5D000F10802CDE9001310462946C1
:1038B40000F0E4F90028EFD1014B9B685C69EBE769
:1038C400D00C002038B50446EFF31185202383F390
:1038D4001288BFF36F8F02F03AFA48B10022826770
:1038E40002F0E7F92946BDE83840074800F036BA47
:1038F400D4E902329A4218BF0133A36085F31188D8
:10390400BFF36F8F38BD00BFDE0E002013B5EFF399
:103914001181202484F31288BFF36F8F846844B12B
:10392400013C846081F31188BFF36F8F002002B0E3
:1039340010BD52EA030406D181F31188BFF36F8FDF
:103944006FF00F00F3E7CDE900230246014800F0D1
:1039540095F9ECE7DE0E002010B5EFF31184202377
:1039640083F31288BFF36F8F02F0F1F948B100229C
:10397400826702F09EF92146044800F0EFF9002026
:1039840010BD84F31188BFF36F8FF8E7DE0E0020BB
:103994002DE9F34105460C4617461E46EFF3118800
:1039A400202383F31288BFF36F8F0846FFF71CFFB1
:1039B4002A464146CDE90076074800F05FF90546FE
:1039C4004FF0FF324FF0FF332046FFF795FE2846B5
:1039D40002B0BDE8F08100BFDE0E00202DE9F04307
:1039E400984685B000F15803C0E91633109B0026B1
:1039F40003730423073222F0070543730F9B01EB83
:103A040005090F4683734946C0E906668660C67396
:103A14000446FDF7BFF80E9B073020F00700A066B0
:103A2400C4E9187502930D9BA9EB000901930C9B43
:103A34004A460093394643462046FDF75BFB054B57
:103A440066659B6803B1DB6E4846E36605B0BDE876
:103A5400F08300BFD00C002038B50D4D2B4653F831
:103A6400184F9C4200D004B9EC68AB6838B95A7B53
:103A7400D20604D1A26912B9DA897F2A05D89C42F8
:103A840002D0204600F0BEFA23466B6138BD00BF69
:103A9400D00C002008B590F90D200146002A437B84
:103AA40004DA03F07F03437302F0C9F8044B986807
:103AB400431A58425841BDE80840FFF7CDBF00BF44
:103AC400D00C002070B490F90D30427B002B29DB20
:103AD400D30627D183692BBB134962F07F0242735B
:103AE4000A4652F8184F944218BF2346CC6923B9AA
:103AF400C0E900242060C8610CE090F90E5093F9ED
:103B04000E60B5420AD0AE4208DD5A68C0E9003200
:103B140010605860002070BCFFF79EBF9C42E7D045
:103B24001B68E4E770BC7047D00C0020002A2DE924
:103B3400F0410E460CBF10210821427B044611427D
:103B44000FD141EA0203D20918D1437308291BD0CB
:103B54000120FFF781FFBFF35F8F637B23F06003D6
:103B64006373274B9B68A34243D1EFF30583002B78
:103B74003FD13046BDE8F041FDF706BA03F07F03BC
:103B8400437302F05CF8E1E7A36813B1204602F046
:103B94005EF804F1180002F03EF94FF0000804F159
:103BA4005807A56DBD4200D0B5B9154FBB689C42FE
:103BB400CED1EFF30583002BCAD00120FFF74CFFD1
:103BC40040F201130F4DAB8100232846C5E9183399
:103BD40000F0D2FBBD60BEE7284602F038F805F1DC
:103BE400180002F018F92846C5F87880FFF76AFF34
:103BF400D7E786F31188BFF36F8FBDE8F08100BF6C
:103C0400D00C0020D805002070B590F90D20014695
:103C1400002A437B04DA03F07F03437302F00FF8B6
:103C2400154A4B7B104663F07F034B7350F8183FE3
:103C3400D469834208BF002323B9C1E90004216089
:103C4400D1610CE091F90E5093F90E60B5420ED09B
:103C5400AE420CDD5868C1E90030016059609068DB
:103C6400BDE87040431A58425841FFF7F5BE9C42E4
:103C7400E3D01B68E0E700BFD00C0020F8B5124B7E
:103C84000C46DDE9067611469868104A1060EFF399
:103C94001182202282F31288BFF36F8F9D68284619
:103CA40001F0DFFFB6F1FF3F08BFB7F1FF3F06D0D9
:103CB4003A463346064905F1180000F05BFA2046FF
:103CC400BDE8F840FDF760B9D00C0020F00C0020EE
:103CD4004B5D0000F8B50446EFF31186202383F30F
:103CE4001288BFF36F8F437B49B2DA0619D1856915
:103CF400BDB903F07F03437301F0A1FF437B164A70
:103D040063F07F0343731346817353F8180F98428B
:103D140018BF0546D0695DB9C4E900300460D461B8
:103D240011E00020A17386F31188BFF36F8FF8BDF3
:103D340095F90E70B9420BD08F4209DD6B68C4E966
:103D440000531C606C600120FFF786FE0120EAE747
:103D5400A842E1D02D68DEE7D00C002049B9EFF38A
:103D6400058030B9054B5A699B689A4201D0FDF72A
:103D74000BB981F31188BFF36F8F7047D00C00200B
:103D840010B5EFF31184202282F31288BFF36F8FF2
:103D9400427B510704D484F31188BFF36F8F10BDA5
:103DA40022F004024273FFF78DFE2146BDE8104065
:103DB4000148FFF7D3BF00BFDE0E0020034648B919
:103DC400EFF3058232B9064A51699268914201D0F3
:103DD400FDF7DAB883F31188BFF36F8F704700BF24
:103DE400D00C0020EFF31181202383F31288BFF35A
:103DF4006F8F054B9A68D37B013BD37381F3118892
:103E0400BFF36F8F704700BFD00C002038B5EFF3BD
:103E14001185202484F31288BFF36F8F0A4B00208E
:103E24009A68D37B0133D373FFF716FE85F31188A9
:103E3400BFF36F8FEFF3118084F31288BFF36F8F9A
:103E4400BDE83840FFF7BABFD00C0020024B03F1A5
:103E54001802C3E906227047D00C0020F8B5EFF32E
:103E64001185202383F31288BFF36F8F1949886863
:103E7400437B03F07F03437301F0E1FE08468B6844
:103E84005A7B62F07F025A7350F8182FCC69824231
:103E940008BF002222B9C3E900042360CB610CE00F
:103EA40093F90E6092F90E70BE420ED0B7420CDD4B
:103EB4005168C3E900210B6053600120FFF7CCFD7A
:103EC4002846BDE8F840FDF75FB8A242E3D0126887
:103ED400E0E700BFD00C002050EA01032DE9F041D7
:103EE40005460E4603D1FFF7B9FF00202BE0831CE3
:103EF40071F1FF3329DB01F0A3FF2C18EFF31188D4
:103F0400202383F31288BFF36F8F124F124BB868CC
:103F14001860FFF7BFFDB86810492A4633461830C9
:103F240000F028F9BA684046537B43F010035373FA
:103F3400FDF72AF801F084FF201A63EB030301283C
:103F440073F10003D1DBBDE8F0816FF00104241AA2
:103F5400D4E700BFD00C0020F00C00204B5D000023
:103F6400B1F1FF3F08BFB0F1FF3F08B506D10A4BDE
:103F7400986801F0ADFE4FF0FF3008BDFFF7ACFFCD
:103F84004FF47A7147F6FF730022C0FB0132D80B5D
:103F940040EA4240F1E700BFD00C0020014B986892
:103FA400704700BFD00C00200122044BC01A044B00
:103FB400C0105843034B1A54704700BF58060020E2
:103FC400ABAAAAAADE0E0020C3897F2B12D80A4B03
:103FD4001B6863B1094B90F90E201B689A4209DBF8
:103FE400437BDB0606D1064BC31A18BF012303F03B
:103FF400010070470023FAE7F80C0020F40C0020BD
:10400400D804002070B50E4B0E4C1E7C054606EB02
:10401400460304EBC304204601F0FDFE00220A4BD4
:1040240028469A55FFF7D0FF48B1084B2046BDE813
:1040340070401A680649013AD31700F09BB870BD66
:10404400D00C002058060020DE0E0020F80C0020C2
:10405400AD3F000038B5EFF31185202383F31288B8
:10406400BFF36F8F104B114A9C681068A04206D1B1
:10407400FFF7C8FF85F31188BFF36F8F38BD0021A8
:104084001B7C11600A4AD35C002BF3D02046FFF757
:104094009BFF0028EED0637BDB0602D12046FFF7AE
:1040A400B3FD2046E4E700BFD00C0020F00C002054
:1040B400DE0E002008B50648064A0749121A01F028
:1040C400D9FCBDE80840054A0549064801F0D2BCC0
:1040D400000000203402002090690000000000006D
:1040E4009069000000000020034B1B680BB9FEF729
:1040F4003BBB0020704700BFFC0C002030B570B102
:104104000B4B5B6898420AD0036843B1D3E904219E
:10411400D0E90445121941EB0501C3E90421D0E9B2
:10412400003213605A600023C0E9003330BD00BF81
:10413400E800002010B50E4B1C689C4204D1FFF728
:10414400D3FF6FF0004010BDFFF7CEFF002CF8D076
:10415400D4E904321B1A62EBE072B3F1004F72F13E
:104164000001EEDA002AACBF18460020EBE700BFDE
:10417400E8000020B3F1FF3F08BFB2F1FF3FF8B5FC
:1041840004461D4616465ED08160EFF31187202356
:1041940083F31288BFF36F8F013275F1FF3324DA92
:1041A4006FF001032D49D1E900209B1A4FF0FF3233
:1041B40062EB00009E1B60EB0500012E70F1000312
:1041C40001DA01260020C4E90460254ED6F800C0B7
:1041D4007568B44508BF4FF0000CBCF1000F0DD159
:1041E400C4E900652C6074601CE0FFF77DFF0136B4
:1041F40045F10005361845EBE070E4E7DCE90420FE
:10420400D4E90431934271EB000E1DDAD21ADCF8C2
:10421400043060EB0100CCE90420C4E900C31C6055
:10422400CCF804403368B34209D09C4207D10D4B0B
:104234001C6824B9FFF77EFF2146FEF767FA87F36F
:104244001188BFF36F8FF8BD9B1A61EB0001AC4579
:10425400C4E90431C4D0DCF800C0BEE77006002015
:10426400E8000020FC0C00202DE9F84FEFF3118C3E
:10427400202383F31288BFF36F8FDFF8B0A0DFF839
:10428400B0900024C9F80000DAF800000025504579
:1042940008BF0020274FE046D7E90021D9F80030B5
:1042A40078B3D0E9046C4FEAE37EB3427EEB0C0BA7
:1042B40005DAF61A6CEB0E04C0E9046421E0B218C6
:1042C40041EBE671C0E90445C7E90021FFF716FF99
:1042D40088F31188BFF36F8F83689847EFF31188D1
:1042E400202383F31288BFF36F8FD9F80030DAF8F4
:1042F40000009B1B5045C446C9F80030CBD1D7E918
:10430400002100249A1841EBE373C7E90023C9F89C
:104314000040FFF70FFF2146FEF7F8F988F31188F4
:10432400BFF36F8FBDE8F84FFFF794BEE80000209D
:10433400FC0C00207006002010B5EFF3118420233C
:1043440083F31288BFF36F8FFFF7CEFE0346054A4F
:10435400D2E90001181841EBE37184F31188BFF32B
:104364006F8F10BD700600200A460146014801F017
:10437400B0BD00BF5C010020014BC366704700BFA5
:104384005C01002038B504460D4601F050FC20B90C
:10439400064B9B68DB6E0BB938BD054B2A4621469C
:1043A4001846BDE8384001F094BD00BFD00C002091
:1043B4005C01002038B5064C064DAC4201D3002008
:1043C40038BD2046D4E9011201F0A1FD1434F4E70C
:1043D4005C0100207001002010B50A4C23681BB159
:1043E40001232360002010BD00F0F4F80028F7D06A
:1043F4000138072803D8044B53F8200010BD0348A4
:1044040010BD00BF000D002060660000FE8FFFFF9E
:10441400BFF34F8F0549064BCA6802F4E0621343A9
:10442400CB60BFF34F8F00BFFDE700BF00ED00E09E
:104434000400FA0530B44FF0FE3200250B4B0C4C4F
:104444000C494968C3F80024C3F80424C3F80824B9
:10445400C3F80C24C3F81024C3F81424C3F8182494
:10446400C3F81C24C4F8005530BC084700508450DD
:1044740000408450F0000020024BD0E90012C3E950
:1044840000127047F000002010B5044650B1636874
:1044940013F0685F05D0064A934202D0002362609D
:1044A400236010BD034B04485B689847EFE700BFE7
:1044B4002C5F5CA9F000002080660000C8B143684E
:1044C4000D4A934213D013F0685F0ED0012350E8D5
:1044D400002F194640E8001C9CF0000FF7D1012A78
:1044E400F5D0BFF35F8F002070470448704704483D
:1044F40070476FF4E04070472C5F5CA9E98FFFFFC1
:10450400EA8FFFFF034680B1426809498A420AD014
:1045140012F0685F05D0BFF35F8F002210461A6067
:10452400704704487047044870476FF4E040704790
:104534002C5F5CA9E98FFFFFEA8FFFFF10B50446EB
:1045440020B10023034A2360626010BD0248FFF7D4
:1045540071FFF6E73A00003AA866000070B5194CFE
:10456400D0F804C00668C4F804C0D0F808C0C06815
:10457400C4F808C0E06026600868134B134D186047
:104584004868D5F818215860886812F0685F986008
:10459400C8680969D860196112D000230C4A05F56E
:1045A4008A70C5F81431C5F8B831C5F81821C5F8B2
:1045B400BC21B047236805F5DC70BDE8704018479E
:1045C40070BD00BF0C010020F8000020180D002071
:1045D4002C5F5CA908B500F011F830B900F010F8B0
:1045E40038B9054AC2F80C0A08BD00F037F80320B0
:1045F40008BD042008BD00BF00508450002070474F
:1046040010B5114800F048F800B110BD0F4800F093
:1046140043F80028F9D10E4C204600F03DF800285C
:10462400F3D10C4B0C481C6000F036F8014600280E
:10463400EBD100F02DF8044608B1204610BD00F07F
:104644003FF82046FAE700BF4C0100204801002053
:10465400440100203C0100204001002008B5084826
:1046640000F024F8074800F021F8074800F01EF88D
:10467400064800F01BF8BDE8084000F00BB800BF86
:104684004C0100204801002044010020400100208A
:1046940000207047704700BF08B5034B02681B68D1
:1046A40010689847002008BD0C01002008B5034B92
:1046B40002685B6810689847002008BD0C01002060
:1046C40070B5094C094D2069AB68984718B1084B7F
:1046D40008485B6898470021074AEB681160206925
:1046E400BDE87040184700BFF80000200C0100200E
:1046F400F0000020CC660000140D00202DE9F04FDE
:1047040043688DB015468046029383789A0740F13A
:104714000D8100240E78002E00F00A81252E0BD086
:104724004B1C0393013441463046029B98470028B2
:10473400C0F2F6800399EDE74E788B1C252E039387
:10474400F0D00027B946BB46BBF11F0F38D8A6F1FD
:104754002003102B0AD8DFE803F02A0909300909DD
:10476400092109090928092D09091F00A6F13003A7
:10477400092B33D92A2E37D11BF0400F55F8043BAF
:1047840040F08280002BA7BF4BF0200B9946C3F169
:1047940000094BF0280B01E04BF0010B039B13F8CD
:1047A400016B0393002ECFD130E04BF0020B4BF0A2
:1047B400040BF3E74BF0080BF0E74BF0100BEDE7BD
:1047C400BBF17F0F19D8A6F13003092BD2D81BF007
:1047D400400F03D00A2101FB0737DFE70A214BF022
:1047E400200B01FB0939D9E72E2E06D11BF0400F0F
:1047F40040F09E804BF0400BD0E76C2E31D02BD88C
:10480400682E36D06A2E3CD04C2E3AD0002F46F07B
:104814002003B8BF2BF04002A3F16501BCBF002701
:104824001FFA82FB022901D9612B2FD107350727F3
:10483400DFF8ACA225F0070508351BF0080F66D099
:104844000AEB070B56465E4563D1A4EB0A0AA9EBB3
:10485400070906EB0A026FE1742E9FD07A2E9DD0D1
:10486400D4E71BF0800F18BF4BF4007B4BF0800B98
:1048740094E71BF4807F18BF4BF4007B4BF4807BE0
:104884008CE74BF4207B89E71F4687E7A6F1630199
:10489400122900F2F080DFE811F013004F00EE005F
:1048A400EE00EE00EE004F00EE00EE00EE00EE0033
:1048B400EE00FE00E900EE00EE001B00EE00AF008B
:1048C40055F8043B01270DF1180A8DF81830B4E7A8
:1048D40055F804AB834BBAF1000F08BF9A461BF09E
:1048E400400F504614BF39464FF0FF3101F074FBBE
:1048F4000746A2E741462020029B984700280FDB89
:10490400013EB742F6D34C44B146A41B98E74E4649
:10491400F7E7414616F8010B029B9847002892DA04
:1049240098F8023043F0040388F802304FF0FF3463
:1049340020460DB0BDE8F08F1BF0800F34D01BF47F
:10494400007F2CD0073525F00705AA4669685AF878
:10495400080B2BF010050029ADB237DA404245F4BC
:10496400806561EB41010DF1180B0A235A4601F0F1
:104974003FFBA0EB0B0301936B0662D5019B25F073
:1049840001019F4289B240F3A180002E00F099807A
:1049940015F0100240F09C80BB460D4623E0AA4669
:1049A4005AF8040BC117D4E7AA461BF4807F5AF8BF
:1049B400041B01D10846F5E71BF4007F19BF48B278
:1049C40041F3C01108B241F3C031C2E750EA010318
:1049D400C9D11BF0400FC6D0002FC4D12BF0110257
:1049E400BB46019795B240F2064115EA01021CBF8D
:1049F4000BF1010B00222CE02BF010020A231FFA0A
:104A040082FB1BF0800C49D01BF4007115BF0735E5
:104A1400AA4625F007055AF8040B1EBFAA46696882
:104A24005AF8080B50EA010545D12BF016051BF086
:104A3400400FADB242D0002F40D12BF017020197A6
:104A440095B215F0100248D0019B002E42D103F11B
:104A5400010B29075AD4EB0706D5D9456FDDA9EB1D
:104A64000B030199CB465F185B4649E04BF0100BF2
:104A740010237826C5E7782B04D1C6F1780343F0D8
:104A84001003BEE741462520029B98470028FFF605
:104A940047AF023447E608230026B2E7AA461BF4D0
:104AA40080715AF8040BBDD01BF400711ABFC0B258
:104AB400614680B2B6E72BF0060295B20DF1180BF1
:104AC40054E725F01105BB46ADB28CE70D46B8E7B7
:104AD4003B460D4603F1020BBBE7DDF804B082E769
:104AE4008769000080690000CDE904324146202036
:104AF400029B98470028FFF613AF049B059A0133E5
:104B04009945F1DCA4EB0B019B46CC180AB3414652
:104B14003020029B98470028FFF602AF8EB901347B
:104B24002744391B019B994224DC1D4655BB019A3D
:104B3400A9EB0B09554622441446914433E0019FE6
:104B440092E7023441463046029B98470028E7DA50
:104B5400E6E640F206410D42E2D015F0020F04F100
:104B64000104414614BF2B20202015F4806F18BF88
:104B74002D20E9E741463020029B01349847002864
:104B8400CFDACDE606AB013D4146585D029B98471E
:104B94000028CBDAC4E641462020029B0134984722
:104BA4000028FFF6BDAEA9EB0403002BF3DCC1E53E
:104BB40070470346F0B419790068DB88012506695B
:104BC400DA07346854BF43F4D01383F4B0138D4030
:104BD40023F48012DB0787684CBF2C43AC4334605A
:104BE4003B68F0BC184703460A461979012300685C
:104BF40003FA01F103691B68194218BF82F001022C
:104C040012B18368DB68184783681B69FBE738B512
:104C1400002120EAE0744FF4004540F2E7304FF4FD
:104C24007A720023C4FB0501FBF792FABDE8384011
:104C3400FFF796B9836800EBC101B3F5004F2CBFB1
:104C440051F8220031F81200704700EBC10180686E
:104C5400B0F5004F2CBF41F8223021F812307047D4
:104C6400012208B5FFF7E6FFD04008BD836800EBDA
:104C7400C101B3F5004F08D34B681AB143F00103E7
:104C84004B60704723F00103FAE74B881AB143F0F5
:104C940001034B80704723F00103FAE7530001221C
:104CA400FFF7D3BF8368B3F5004F34BF0423082351
:104CB400C91A081AC0087047B0F5004F34BF04235E
:104CC4000823481C0833A0EBD300B0FA80F0C0F1ED
:104CD4001F0070472DE9F041174603220E46044693
:104CE400FFF7A8FF8642054607F104080AD101220E
:104CF400E368BA4023EA0203E360002344F828305F
:104D0400BDE8F081314602222046FFF793FF0646B4
:104D14002B4601460322204644F82850FFF795FF0E
:104D2400334629462046BDE8F0410222FFF78DBFF5
:104D340070B50D4686680446FFF792FFB6F5004F3E
:104D4400014601D3012809D03046FFF7B5FF2946B3
:104D540002462046BDE87040FFF7BCBF70BD2DE998
:104D6400F04705468068FFF7A7FF05EB800ADAF8ED
:104D7400109088460646B9F1000F1BD00327DAF8D5
:104D8400104028462146FFF76BFF404507D33246C3
:104D940021462846FFF79EFF2046BDE8F087032200
:104DA40021462846FFF746FF013FCAF8100001D00C
:104DB4008145E4D14FF0FF34EB680136B4401C4028
:104DC400EAD094FAA4F2B2FA82F2131D55F8234001
:104DD400DEE72DE9F04114460E460546FFF740FF95
:104DE400A4EB0608371B0744424631462846FFF722
:104DF40055FF3A4621462846FFF750FF4346002216
:104E040021462846FFF721FF21462846FFF728FFC1
:104E14003B46211800222846BDE8F041FFF715BFA4
:104E24002DE9F041164604460F46FFF719FF3146B7
:104E340005462046FFF714FF05442A463946204616
:104E4400FFF72CFF31462046FFF70AFF2B463118A7
:104E540000222046BDE8F041FFF7F7BE2DE9F041FE
:104E64000D4686680446FFF7FBFEB6F5004F014683
:104E740001D3012832D03046FFF71EFF04EB800136
:104E84000E6996B90122E36882401343E36002226B
:104E94000D612B4629462046FFF7D7FE03222946FB
:104EA4002046BDE8F041FFF7D0BE0222314620463D
:104EB400FFF7C0FE0746034629462046FFF7C5FE16
:104EC4000322334629462046FFF7BFFE39462B46C8
:104ED4002046FFF7BAFE02223146E1E7BDE8F08141
:104EE400F8B50C460546FFF7BBFE261801223146ED
:104EF4002846FFF79FFEC3070CD431462846FFF728
:104F040017FF21462846FFF7ABFE21462218284604
:104F1400FFF786FF002221462846FFF78BFE271A5B
:104F2400012239462846FFF785FE10EA020613D10E
:104F340039462846FFF7FCFE214632462846FFF74D
:104F440079FE2246211A2846FFF76AFF2146324697
:104F54002846FFF76FFE241A21462846BDE8F8408C
:104F6400FFF77CBF38B571B1056800222846FFF70A
:104F740099FE044601462846FFF778FE2146BDE81F
:104F84003840FFF7ADBF38BD70B5066809B90020D9
:104F940070BDB368B3EBD10FF9D9B3F5004F34BF8B
:104FA40004230823CC1D1C44E40821463046FFF7A3
:104FB400D6FE05460028EAD001463046FFF750FEEB
:104FC400A04209D92C44294630462246FFF701FF66
:104FD40021463046FFF742FF304601222946FFF7BB
:104FE40045FEB368B3F5004F34BF0423082303EB35
:104FF400C5031844CCE72DE9F84306681446B268A3
:1050040001F1FF39B2F5004F34BF0423082319EA34
:1050140001090F460BD0494239408B424F4628BF05
:105024000B46894654B900252846BDE8F8839942C1
:10503400F8D82146BDE8F843FFF7A6BFB2EBD40F7A
:10504400F1D9B2F5004F34BF04220822E11D3944DE
:10505400C91A11443046C908FFF781FE804600286A
:10506400E1D0B36809EBC005B3F5004F34BF0423A6
:1050740008231D4435447B1E1D44B5FBF7F57D43D1
:10508400A5EB090529463046FFF70CFE2C440734EE
:1050940024F00704A41B804507464FEAE40408D221
:1050A400024641463046FFF794FE41463046FFF73C
:1050B400D5FE39463046FFF7D3FD3844844208D242
:1050C400394630462246FFF784FE21463046FFF734
:1050D400C5FE012239463046FFF7C8FDA4E7B2F504
:1050E400802F2CBF082304232DE9F0410026D21A77
:1050F4008C18CD1D25F0070524F00704641BE40873
:10510400056021462046AC60EE60FFF7D5FD421DE8
:105114009200013002F107074FEAD7073146A2F1A6
:10512400100205F11000B8BF324600F0C4FF3A4641
:1051340031462846FFF7B2FD33463246314628460B
:10514400FFF783FDA4EB0708284631460122FFF749
:105154008DFD42463946FFF7A1FD3B4632463946AE
:105164002846FFF772FD21462846FFF797FD434680
:10517400324621462846FFF768FD2146284601228B
:10518400FFF774FD3946BDE8F041FFF767BE002024
:1051940070470FB407B504A951F8040B0191FBF74C
:1051A4009DFA03B05DF804EB04B07047038B13F071
:1051B400070305D10368002B0CBF002003207047B0
:1051C400022B05D1408BB0FA80F040098000704773
:1051D400012B05D10368002B0CBF0020052070476C
:1051E4000020704710B50C4600B111B96FF01500DE
:1051F40010BD081D00F093F80028F9D1A368032B13
:10520400F6D9F3E72DE9F0410D4607461946281D66
:1052140090461E4600F094F8044638B133464246A0
:1052240029463846A446BDE8F0416047BDE8F08110
:1052340010B4EFF31182202484F31288BFF36F8F2C
:10524400416110BC0121FBF781BA38B50C46054613
:1052540058B151B10B6843B14B6833B11C220021E2
:1052640000F029FF00202C6138BD6FF01500FBE72A
:1052740070B505460E46FFF7B5FF041E14DBEFF3C9
:105284001182202383F31288BFF36F8F4FF6FF71CF
:105294006B8B2C8B8B4204F0070407D182F31188AB
:1052A400BFF36F8F6FF00A04204670BD022C0CD13F
:1052B40001336B8382F31188BFF36F8F002322467F
:1052C40031462846FFF79EFFEEE7062C14D8DFE8A8
:1052D40004F004131313041A0400002333606B68EE
:1052E4003BB9C5E90066ACB902212846FBF72EFAA2
:1052F400DAE71E606E60F6E782F31188BFF36F8F02
:105304006FF00404D0E782F31188BFF36F8F6FF05E
:105314008504C9E782F31188BFF36F8FC4E703469E
:1053240058B1426802F00302012A03D0032A04D1CF
:10533400026812B10020986070476FF01500704742
:105344004268034602F00302032A4FF00002816020
:1053540014BF104600685A6070477047FEE7012882
:1053640001D1EFF30583FEF749B801460068FFF762
:10537400F6BF08B5FBF70AFCBDE80840FBF72ABCFA
:1053840000210120FFF7EBBF036E83F30B88704706
:1053940061B662B680F31188BFF36F8F704708B5AA
:1053A40072B6002383F31188BFF36F8FFCF77AF989
:1053B40050B1BFF34F8F30BF00BF00BF00BF00BF6D
:1053C40000BF00BF00BF00BF62B6BFF36F8F08BD50
:1053D40010B5044672B6002383F31188BFF36F8FB0
:1053E400FCF760F950B1BFF34F8F20BF00BF00BF7F
:1053F40000BF00BF00BF00BF00BF00BF84F311881F
:10540400BFF36F8F62B610BD40E800F313F4803F22
:10541400D8B208BF6FF01500704730B50C684B6800
:1054240085B00A894D890094013B24F01F0423446C
:1054340002F01F0242EA451223F01F0369468DF869
:1054440008200393FBF7EEFE05B030BD08B5FCF76A
:10545400A9F8002008BD0B464FF050220121C2F8E4
:105464001416002118470C220369C9B201FB023348
:10547400986F00F00700704770B5C9B20369EFF385
:105484001185202484F31288BFF36F8F0C2606FB4A
:105494000134A46F14F0C00408D0A24206D085F3EE
:1054A4001188BFF36F8F4FF0FF3070BD012206FBF0
:1054B40001339A6785F31188BFF36F8F436803EB59
:1054C400C1035B6898470020EFE78022FFF7D4BF51
:1054D400F8B5069F0469C9B2EFF31186202585F358
:1054E4001288BFF36F8F0C2505FB0144A56F05F0EF
:1054F400070CBCF1010F0CD1A76786F31188BFF329
:105504006F8FC4E91C23436853F831309847002057
:10551400F8BD05F0C005AF4286F31188BFF36F8F65
:105524000CBF6FF077004FF0FF30F1E713B5802424
:105534000094FFF7CDFF02B010BD10B41C24006925
:10554400CBB203FB0400002110BC10470320FDF77D
:105554009DBA0220FDF79ABA0020FDF797BA0320FE
:1055640000F0D1B9022000F0CEB9002000F0CBB990
:105574001046FEF7A7B9436800205B681B690B60FF
:105584007047436802EA01005B6821EA02019860FF
:105594000020D9607047436800205B6899607047B9
:1055A400436800205B68D960704743685A68536851
:1055B40021EA03000B4090600020D360704710B5CF
:1055C40003695868F8B1884219D19C680868A142F7
:1055D400586000D19860002008602AB15A680A60B7
:1055E4009A68596002B99960002010E0814206D19E
:1055F4000868206098688142EDD19C60EBE704461E
:1056040000680028F2D1002AE8D16FF0150010BD1F
:1056140030B543681360057A446804EBC504A342BB
:1056240002D36FF0010030BD5C798C4201D00833A5
:10563400F0E70020F7E7F8B544682068D8B100F037
:10564400E9F9C8B120682179E38801250669DA07F8
:10565400346854BF43F4B01383F4D01323F480129A
:105664008D40DB0787684CBF2C43AC4334603B68F8
:10567400984700EAE070F8BD6FF01200FBE743685A
:105684001B68D3F88004C3F8800470474368026938
:105694001B68D3F8100150B10020526912780A70C7
:1056A400C3F81001D3F8102101221A6070474FF09B
:1056B400FF30704702680346D2F8580140B95B686E
:1056C4009B0706D4D2F82001003818BF0120704788
:1056D4000120704742681368D3F80413C90517D52D
:1056E400D3F82011A1B1EFF31181202080F31288A7
:1056F400BFF36F8FD3F8200130B10020C3F820012D
:10570400D3F820010120D86081F31188BFF36F8F93
:105714005268D20614D5EFF31182202181F3128846
:10572400BFF36F8FD3F8581111B10021C3F80015DE
:105734004FF48001C3F8081382F31188BFF36F8F0D
:105744007047002200F150039B009BB203F15023E9
:1057540003F580331A601B68704708B5FCF772FEC6
:1057640008BDFEF739BE08B5FBF712F9FBF7F8F9E7
:10577400BDE80840FEF730BE004700F046B940F0EF
:105784000040C1F88000704740F00040C1F880003C
:10579400704740F00040C1F88000C2F880007047B4
:1057A400FDF734BA73B503285DD8DFE800F00218BA
:1057B40026344FF050230222C3F808230122DA6072
:1057C4000022C3F80421D3F80431002401238DF806
:1057D4000730032847D8DFE800F02C4865824FF0F3
:1057E40050230122C3F808235A600022C3F8002181
:1057F400D3F800310DF10704E8E74FF050234FF4DC
:105804000072C3F8082301225A620022C3F824213B
:10581400D3F82431D9E74FF050234FF48072C3F802
:1058240008230122DA610022C3F82021D3F82031B1
:10583400CBE742F210754FF05026D6F8183403F433
:10584400803334B97BB10120FFF797FF013DF4D1D8
:1058540009E0D6F8182402F0030222701BB19DF867
:1058640007000128F0D002B070BD42F210754FF06D
:105874005026D6F80C3403F480333CB9002BF2D014
:105884000120FFF77AFF013DF3D1ECE7D6F80C24B1
:1058940002F001022270002BE5D09DF807000128D8
:1058A400EFD0E0E742F210754FF05026D6F85C34A2
:1058B40003F480333CB9002BD5D00120FFF75DFF02
:1058C400013DF3D1CFE7D6F85C2402F00102227047
:1058D400002BC8D09DF807000128EFD0C3E742F29F
:1058E40010754FF05026D6F85434DB03BBD52CB9D1
:1058F4000120FFF742FF013DF5D1B4E79DF8070011
:105904000128F6D0AFE7FFF74DBFF7B51646DDE93E
:105914000847019001A81D46FDF77EF9019BB6F1E9
:10592400000C18BF4FF0010C00EB83000B1E18BFD6
:105934000123002D43EA4C0314BF4FF00C0C4FF02D
:10594400000C002C43EA0C0314BF4FF4706C4FF0AE
:10595400000C002F43EA0C0314BF4FF4403C4FF0FB
:10596400000CD0F8002243EA0C0322EA030301B13D
:1059740009780EB13678760019430DB12D78AD0053
:1059840031430CB12478240229430FB13F783F04FA
:105994000C433C43C0F8004203B0F0BD1FB50DF109
:1059A4000F03019300238DF80F101A461946009334
:1059B400FFF7ABFF05B05DF804FB38B505460846B4
:1059C4000C46FDF77DF9B0B10846FDF76DF990B9C5
:1059D4000846FDF75DF901232A688340C2F80833BD
:1059E4002A6803B202EB8303D3F8102522F00302E2
:1059F400C3F8102538BD2046BDE838400021FFF724
:105A0400CDBFFDF7E1B9FFF7D8BF08B1FBF77CBE06
:105A14007047704740B1C368587810F001001EBF4A
:105A24001878B0FA80F040097047EFF3118320230F
:105A340083F31288BFF36F8FFEE708B5FFF7F5FF16
:105A440010B5D0E9003433B90020E268537843F04C
:105A54000103537010BD204698470028F4D0002855
:105A6400B8BF4042FF28A8BFFF20E3681870ECE7E6
:105A740000F021BB00F012BB82684369134313F0AA
:105A840003030CD1C3600169994201D80020704717
:105A9400C168013311604169C2600A44F3E76FF0E1
:105AA4001500704710B5C0E904320023816083619A
:105AB4000446FFF7E1FF0028A8BFC4E9004410BD75
:105AC400F8B504460D46EFF31186202383F31288BC
:105AD400BFF36F8FC7686FB900F039F950B18767AA
